:020000040C00EE
:100000000088FE1F010200089902000899020008FA
:1000100099020008990200089902000800000000F7
:10002000000000000000000000000000990200082D
:1000300099020008000000009902000899020008D7
:100040009902000899020008990200089902000824
:100050009902000899020008990200089902000814
:1000600099020008000000000000000000000000ED
:100070009902000800000000990200089902000897
:10008000390C00089902000899020008990200083A
:1000900099020008990200089902000899020008D4
:1000A00099020008990200089902000899020008C4
:1000B00099020008990200089902000899020008B4
:1000C00099020008990200089902000899020008A4
:1000D0009902000899020008990200089902000894
:1000E0009902000899020008990200089902000884
:1000F0009902000899020008990200089902000874
:100100008108000899020008990200089902000875
:100110009902000899020008990200089902000853
:100120009902000899020008990200089902000843
:100130009902000899020008990200089902000833
:100140009902000899020008990200089902000823
:100150009506000899020008990200089902000813
:10016000000000000000000000000000000000008F
:1001700099020008990200089902000899020008F3
:1001800099020008990200089902000899020008E3
:1001900099020008990200089902000899020008D3
:1001A00099020008990200089902000899020008C3
:1001B00099020008990200089902000899020008B3
:1001C00099020008990200089902000899020008A3
:1001D0009902000899020008990200080000000036
:1001E0009902000899020008990200089902000883
:1001F0009902000899020008990200080000000016
:10020000DFF874D01D4880471D4C1E4DAC4209DA02
:1002100021686268A368043BA2BFC858D050FAE7BF
:100220000C34F3E7184B194CA34208DA19685A68E2
:100230000020043AA4BF8850FBE70833F4E71448D1
:100240008047144880470000742A000C0088FE1F75
:1002500024050000742A000C0088FE1F0000000026
:10026000248DFE1F2400000000000020000000007C
:1002700000000020000000000088FE1FE50F0008BD
:1002800048020008600200086002000878020008C6
:10029000CD290008FD200008FEE7000080B500AF72
:1002A00000F030FA00F0DCFC80BD00BF80B500AF8C
:1002B00000F0B2FA80BD00BF80B582B000AF034647
:1002C000FB71FB79184600F0B5FA0837BD4680BDD2
:1002D00080B483B000AF7860044A7B681360012368
:1002E00018460C37BD465DF8047B70473C8DFE1FF9
:1002F00080B483B000AF78607B68064A118892783A
:1003000019809A70012318460C37BD465DF8047BAE
:10031000704700BF408DFE1F80B582B000AF78608F
:10032000002000F0A5FC02467B681A6001231846F5
:100330000837BD4680BD00BF80B483B000AF034620
:10034000FB71084997F907305B09FA7902F01F023F
:10035000012000FA02F241F823200C37BD465DF877
:10036000047B704700E100E080B483B000AF034637
:100370003960FB7197F90730002B0BDA0D49FB79D7
:1003800003F00F03043B3A68D2B29200D2B20B449E
:100390001A7609E0084997F907303A68D2B2920014
:1003A000D2B20B4483F800230C37BD465DF8047BC2
:1003B000704700BF00ED00E000E100E080B483B0D2
:1003C00000AF78607B68DB6843F480727B68DA603A
:1003D0000C37BD465DF8047B704700BF80B483B026
:1003E00000AF78600B46FB707B68DA68FB78012110
:1003F00001FA03F31A437B68DA600C37BD465DF8F7
:10040000047B704780B483B000AF78607B680122C2
:10041000DA600C37BD465DF8047B704780B483B06A
:1004200000AF78600B467B807A887B685A630C3714
:10043000BD465DF8047B704780B483B000AF786040
:100440000B467B807A887B68DA630C37BD465DF8A3
:10045000047B704780B483B000AF786039607B68FC
:100460003A681A610C37BD465DF8047B704700BFDF
:1004700080B483B000AF78607B6801229A600C374B
:10048000BD465DF8047B704780B483B000AF7860F0
:100490007B681B6B03F03803DB08DBB218460C37B4
:1004A000BD465DF8047B704780B483B000AF7860D0
:1004B0000B46FB70FB7803F03F027B685A630C37F6
:1004C000BD465DF8047B704780B483B000AF7860B0
:1004D0007B6802229A640C37BD465DF8047B704746
:1004E00080B483B000AF78600B46FB707B685A6FB6
:1004F000FB78012101FA03F31A437B685A670C3732
:10050000BD465DF8047B704780B483B000AF78606F
:100510000B46FB70FB7801229A407B68DA670C3748
:10052000BD465DF8047B704780B483B000AF78604F
:100530000B46FB70FB784FF001129A407B685A60C3
:100540000C37BD465DF8047B704700BF80B483B0B4
:1005500000AF78600B46FB707B685A6AFB7822FA22
:1005600003F303F0010318460C37BD465DF8047B26
:10057000704700BF80B582B000AF1C480721FFF76D
:10058000E5FF02461A4B1A6018480621FFF7DEFF06
:100590000246174B5A6015480521FFF7D7FF024660
:1005A000134B9A60124B1B68DAB2114B5B68DBB2DB
:1005B0005B00DBB21343DAB20D4B9B68DBB29B00EE
:1005C000DBB21343FB71FB79184600F035F80346A4
:1005D00008481946FFF768FF0648FFF775FFFB79E3
:1005E000184600F009F80837BD4680BD008E024865
:1005F000248DFE1F0080024080B483B000AF03460C
:10060000FB71FB7903F00103DAB20A4B1A70FB7934
:1006100003F002035B10DAB2064B5A70FB7903F069
:1006200004039B10DAB2034B9A700C37BD465DF899
:10063000047B7047408DFE1F80B483B000AF03463B
:10064000FB710B4B1B78002B02D0012B04D007E071
:10065000FB79084AD35C04E0FB79074AD35C00E0ED
:10066000002318460C37BD465DF8047B704700BF79
:10067000308DFE1F0888FE1F0088FE1F80B400AF6B
:10068000034B1B781846BD465DF8047B704700BFDE
:10069000308DFE1F80B582B000AF1648FFF7F4FE24
:1006A0000346FB71FB791846FFF7C6FF0346114866
:1006B0001946FFF7F9FE0F48FFF706FFFB791846CA
:1006C000FFF79AFF0C4B1B68002B04D00A4B1B68EA
:1006D0000133094A136007480021FFF715FF074857
:1006E0000921FFF721FF064B1B6898470837BD46D5
:1006F00080BD00BF00800240388DFE1F008502488B
:100700003C8DFE1F80B500AF36480721364A00F009
:1007100095FE34480621344A00F090FE3148052108
:10072000314A00F08BFE31480921802201F04EF958
:100730002F48002100F0F2FF2D48FFF73FFE2C4824
:10074000002101F009F82B482B4901F01FF82B4834
:100750002B4901F051F827487F21FFF75FFE25481C
:100760004021FFF769FE25484FF6FF71FFF756FE5F
:100770001F481121FFF76EFE1E480121012201F0E2
:1007800061F81E48012101F08BF81C4801211D4A27
:1007900001F0A0F8174801211B4A01F09BF814480A
:1007A0000021FFF71BFE12480121FFF717FE174833
:1007B000174901F07FF91548164901F08DF91348E2
:1007C0000021FFF78DFE11480021002201F0A4F95D
:1007D00044200021FFF7C8FD4420FFF7ADFDFFF7DF
:1007E000C9FE80BD008E02483088FE1F0085024889
:1007F00000C0004000C100401088FE1F00C2004041
:100800001888FE1F2488FE1F2088FE1F00800240DB
:100810002888FE1F2C88FE1F80B500AF0348FFF715
:10082000F1FD0348FFF724FE80BD00BF00C2004079
:100830000080024080B483B000AF0346FB71044ADD
:10084000FB7913700C37BD465DF8047B704700BF21
:10085000308DFE1F80B483B000AF78600B46FB7014
:100860007B68D3F8B020FB78012101FA03F31A4327
:100870007B68C3F8B0200C37BD465DF8047B704739
:1008800080B582B000AF09480A21FFF7E3FF0748AF
:10089000012101F089F80346FB800448032101F09F
:1008A00083F80346BB800837BD4680BD0004014085
:1008B00080B400AF044BDB6803F4E0631B0A184606
:1008C000BD465DF8047B704700ED00E080B483B066
:1008D00000AF0346FB71084997F907305B09FA79C5
:1008E00002F01F02012000FA02F241F823200C3727
:1008F000BD465DF8047B704700E100E080B483B042
:1009000000AF03463960FB7197F90730002B0BDA13
:100910000D49FB7903F00F03043B3A68D2B2920011
:10092000D2B20B441A7609E0084997F907303A68C1
:10093000D2B29200D2B20B4483F800230C37BD46EA
:100940005DF8047B704700BF00ED00E000E100E0CF
:1009500080B489B000AFF860B9607A60FB6803F0DA
:100960000703FB61FB69C3F10703062B28BF0623BE
:10097000BB61FB690633062B02D9FB69013B00E032
:1009800000237B61BB69012202FA03F35A1EBB6894
:100990001A407B699A407B69012101FA03F3591ED1
:1009A0007B680B40134318462437BD465DF8047B33
:1009B000704700BF80B483B000AF786039607B6857
:1009C000D3F880203B681033194601238B401A432B
:1009D0007B68C3F880200C37BD465DF8047B704708
:1009E00080B483B000AF78607B68D3F8043243F4FE
:1009F00000727B68C3F804220C37BD465DF8047BA7
:100A0000704700BF80B485B000AFF860B9607A600D
:100A1000FB68BA68603253F822207B68012101FA32
:100A200003F342EA0301FB68BA68603243F822101C
:100A30001437BD465DF8047B704700BF80B485B0B5
:100A400000AFF860B9607A607B681968FB68BA68C3
:100A5000A03243F822101437BD465DF8047B70477E
:100A600080B483B000AF786039607B683A68C03288
:100A700053F822309BB218460C37BD465DF8047B14
:100A8000704700BF80B500AF4FF040200A4901F029
:100A9000D3F80A480A4901F071F90848032101F026
:100AA000FDF94FF040200021FFF784FF4FF0402078
:100AB00001F010F980BD00BF182A00080044004072
:100AC000302A000890B583B000AF394B4FF040207A
:100AD00019680022002301F0D9F84FF04020354971
:100AE00001F0F8F90023FB713EE0FA7913469B0010
:100AF00013449B00304A13443B603B689A683B6850
:100B00009B7C19463B681B6810461A4601F060FA48
:100B10003B689A683B689B7C19463B681B685B781E
:100B2000C3F3C003DBB210461A4601F0BFFA3B68BC
:100B30009A683B681B689B78C3F30303DBB21946D2
:100B40003B685B6810461A46FFF778FF3B685B7CA2
:100B50001A463B689B7C4FF0402011461A46FFF72F
:100B600051FFFB790133FB71FB79002BBDD01023C2
:100B7000DCB2FFF79DFE01463F22002308461146E6
:100B80001A46FFF7E5FE024663B218461146FFF724
:100B9000B5FE4FF04020062101F0CCF81023DBB267
:100BA0005BB21846FFF792FE0C37BD4690BD00BF02
:100BB000442A0008482A00084C88FE1F80B500AF70
:100BC0004FF04020FFF70CFF80BD00BF80B582B022
:100BD00000AF78607B689A687B681B689B78C3F37A
:100BE0000303DBB210461946FFF73AFF03461846E7
:100BF0000837BD4680BD00BF80B582B000AF034658
:100C0000FB80FB88184601F0E1FB02460B461046CC
:100C1000194607A3D3E9002301F03EFC02460B4628
:100C2000104619460837BD4680BD00BFAFF30080AF
:100C3000745E6397A8DE4A3F80B500AF0548FFF7B2
:100C4000C5FF03461A46044B1A80044B00221A7053
:100C500080BD00BF4C88FE1F448DFE1F468DFE1FC9
:100C600080B500AFFFF70EFFFFF72CFF80BD00BF80
:100C7000B0B588B000AF0346FB710023FB614FF0B5
:100C800000024FF00003C7E904234FF000024FF0C9
:100C90000003C7E902232A4B01221A70FFF78EFFD7
:100CA00000BF274B1B78012BFBD0FB79254A32F87C
:100CB00013301846FFF7A0FFC7E90401D7E9040184
:100CC0001DA3D3E9002301F0E7FB02460B461446BF
:100CD0001D464FF000001C49D7E9042301F028FA13
:100CE00002460B462046294601F000FD02460B460F
:100CF000C7E9022300BFFB695A1CFA61134ADB00F3
:100D000013445B68184601F051FB02460B4610463F
:100D10001946D7E9022301F04FFE0346002B02D00B
:100D2000FB69962BE7DD094AFB6952F83330184618
:100D30002037BD46B0BD00BF000000000088C340A2
:100D4000468DFE1F448DFE1F000014406088FE1F6C
:100D500080B483B000AF78600B46FB70FB784FF433
:100D600080329A407B685A600C37BD465DF8047B40
:100D7000704700BF80B500AF0C480521FFF7E8FFC2
:100D80000A480221FFF7E4FF08480421FFF7E0FFCB
:100D900006480121FFF7DCFF04480321FFF7D8FFD5
:100DA00002480021FFF7D4FF80BD00BF0080024849
:100DB00080B586B000AF1C4A07F1080310681860C0
:100DC0009188927999809A71184A3B461068186008
:100DD0009188927999809A713B467B61FFF74EFC2E
:100DE0000346012B02D107F108037B6107F11003D1
:100DF0001846FFF77DFA0346012B11D13B7CDAB28E
:100E00007B7C5B00DBB21343DAB2BB7C9B00DBB2C2
:100E10001343DBB2FB74FB7C7869194600F05EF883
:100E20001837BD4680BD00BF542A00085C2A000860
:100E300080B500AF14480521144A00F0FFFA1248AB
:100E40000221124A00F0FAFA0F4804210F4A00F07A
:100E5000F5FA0D4801210D4A00F0F0FA0A48032185
:100E60000A4A00F0EBFA08480021084A00F0E6FAC6
:100E700007480921054A00F0E1FAFFF77BFF054822
:100E8000FFF726FA80BD00BF00800248188DFE1FC4
:100E900000810248B10D000880B483B000AF7860D3
:100EA0000B46FB70FB7801229A407B685A600C3736
:100EB000BD465DF8047B704780B483B000AF7860B6
:100EC0000B46FB70FB784FF480329A407B685A6087
:100ED0000C37BD465DF8047B704700BF80B582B01B
:100EE00000AF78600B46FB707B681B78FA789A42FB
:100EF0000AD1FFF73FFF30480521FFF7CDFF2E480D
:100F00000121FFF7C9FF53E07B6801331B78FA78B2
:100F10009A420AD1FFF72EFF27480521FFF7CCFFA1
:100F200025480321FFF7B8FF42E07B6802331B78B6
:100F3000FA789A420AD1FFF71DFF1F480121FFF7F7
:100F4000BBFF1D480221FFF7A7FF31E07B68033399
:100F50001B78FA789A420AD1FFF70CFF1648032152
:100F6000FFF7AAFF14480421FFF796FF20E07B68F3
:100F700004331B78FA789A420AD1FFF7FBFE0E4839
:100F80000221FFF799FF0C480021FFF785FF0FE0D2
:100F90007B6805331B78FA789A4209D1FFF7EAFE9D
:100FA00005480421FFF788FF03480521FFF774FF78
:100FB0000837BD4680BD00BF0080024880B485B0C0
:100FC00000AF78600023FB6003E000BFFB680133E3
:100FD000FB60FA687B689A42F7D31437BD465DF828
:100FE000047B704798B500AF054A4FF00053144694
:100FF0000FCB84E80F0000F005F800F03BF898BD37
:10100000C4FF032080B483B000AF72B6164B174AFA
:101010009A60BFF34F8F62B6134A134BD3F88830F0
:1010200043F47003C2F888300F4A0F4B5B6923F01A
:10103000080353610E4B03F5805314331B687B6028
:101040007B6823F00F037B607B6843F004037B60C5
:10105000074B03F5805314337A681A600C37BD468A
:101060005DF8047B704700BF00ED00E00000000861
:101070000010005880B500AFA44B1B6803F00103BB
:10108000002B0CD1A14AA14B5B6843F001035360D4
:1010900000BF9E4B1B6803F00103002BF9D09C4B53
:1010A0001B6803F40073002B09D0994A984B9B6886
:1010B00043F40073936041F64C50FFF77FFF954A6D
:1010C000944B5B6843F40023536040F6C410FFF771
:1010D00075FF904A8F4B5B6823F4803323F0020343
:1010E00053608D4B5B6803F03003002B29D08A4A94
:1010F000894B5B6823F4702323F03003536000F0C6
:1011000093F90246854BA3FB02231B0D013B1B04F5
:101110008149814A526813434B607E4A7D4BDB68AC
:1011200023F00103D3607B4A7A4B5B6823F40033DE
:10113000536000BF774B1B6803F46073B3F5607FA7
:10114000F8D1744A734B5B6843F001035360714AF2
:10115000704B5B6843F0100353606E4B704A9A60AB
:101160006C4A6C4B5B6843F040035360694A694BBF
:101170005B6823F010035360664A664B5B6843F478
:101180008023536000BF634B1B6803F00403002BF4
:10119000F9D0604A5F4B5B6823F00103536000BFE6
:1011A0005C4B1B6803F00103002BF9D15D4B4FF042
:1011B0000112DA605B4B00225A615A4B00221A611D
:1011C000584B00221A62574B00225A62554B032299
:1011D000DA61544B544A9A61524B01229A63514B43
:1011E000524A9A624B4A4B4B5B6823F04003536070
:1011F000484B4F4A9A604FF41660FFF7DFFE454BAD
:101200004C4A9A604FF46160FFF7D8FE414B4A4A5E
:101210009A604FF49650FFF7D1FE3E4B474A9A60D2
:1012200041F27070FFF7CAFE3A4B454A9A604FF49C
:10123000E150FFF7C3FE374A364B5B6923F4803336
:1012400023F002035361344B5B6803F03003002B3F
:1012500031D0304B5A683B4B1340002B07D02D4AFE
:101260002C4B5B6823F4803323F0020353602A4A3B
:10127000294B5B6823F4702323F03003536000F0A4
:10128000D3F80246254BA3FB02231B0D013B1B0495
:101290002149214A526813434B601E4A1D4B5B682B
:1012A00023F40033536000BF1A4B1B6803F46073D0
:1012B000B3F5607FF8D1174A164B5B6943F0010321
:1012C0005361144A134B5B6943F010035361114B94
:1012D0001D4A5A610F4A0F4B5B6943F0400353614B
:1012E0000C4A0C4B5B6923F010035361094A094B0C
:1012F0005B6943F48023536100BF064B1B6903F015
:101300000403002BF9D0074B00221FE000420050DD
:101310000044005010470050004700506BCA5F6BFC
:10132000002F0B01004600500500010003002001C2
:10133000002F0501002F0301002F0201002F0101E2
:10134000002F000102000100006300025A6000F05B
:1013500001F880BD80B584B000AF2F4BDB6803F48B
:101360008033002B3ED02D4BDB6803F00103002BB4
:1013700002D02B4BFB6002E000F056F8F860274BE0
:101380001B6803F00403002B20D0244B9B6803F060
:1013900070631B0E0133BB60204B9B6803F4FE435C
:1013A0001B0A01337B601D4B9B6803F4FE031B0C7F
:1013B00001333B60BB683A6802FB03F3FA68B2FB97
:1013C000F3F37A6802FB03F3FB600DE0134B9B68B9
:1013D00003F07F0301333B60FA683B68B2FBF3F331
:1013E000FB6001E00E4BFB600B4BDB68DBB20133B3
:1013F000FA68B2FBF3F3FB60074B1B6903F00103D0
:101400000133FA68B2FBF3F3FB60064AFB68136032
:101410001037BD4680BD00BF004600501047005049
:1014200000366E01C0FF032080B400AF024B1846A7
:10143000BD465DF8047B7047001BB70080B485B0E3
:1014400000AFF8600B467A60FB72FB7A9B08DBB258
:101450001846FB7A9B08DBB21A46FB68043253F845
:101460002220FB7A03F00303DB001946F8238B40AC
:10147000DB4302EA0301FB68021D43F82210FB680C
:101480005A6FFB7A5B00194603238B40DB431A40FB
:10149000FB685A67FB68374A934203D0FB68364AB9
:1014A00093420AD1FB681A6EFB7A012101FA03F319
:1014B000DB431A40FB681A663CE07B685A68FB7A9B
:1014C0009A40FB685A60FB7ADB08DBB21846FB7A6D
:1014D000DB08DBB21A46FB68103253F82220FB7A95
:1014E00003F007039B00194607238B40DB4302EA06
:1014F0000301FB6800F1100243F82210FB7ADB08BD
:10150000DBB21846FB7ADB08DBB21A46FB68103206
:1015100053F822207B681B7A1946FB7A03F00703F5
:101520009B0001FA03F342EA0301FB6800F1100299
:1015300043F82210FB7A9B08DBB21846FB7A9B0823
:10154000DBB21A46FB68043253F822207B681B7812
:101550001946FB7A03F00303DB0001FA03F342EAC6
:101560000301FB68021D43F822101437BD465DF8E5
:10157000047B7047008E0248008F024880B485B01B
:1015800000AF78607B681B0FFB607B6823F07043C3
:10159000BB60FA6813465B0013449B001A46044B79
:1015A0001344BA681A601437BD465DF8047B70476F
:1015B0001444005080B483B000AF0346FB71044A6A
:1015C000FB7953600C37BD465DF8047B704700BF64
:1015D0000046005080B485B000AF78607B681B0F78
:1015E000FB607B6823F07043BB60FA6813465B00C6
:1015F00013449B001A46044B1344BA681A6014370C
:10160000BD465DF8047B70474846005080B483B007
:1016100000AF78607B68DB6843F480727B68DA60D7
:101620000C37BD465DF8047B704700BF80B582B0C3
:1016300000AF78607B68124A934211D0104A9342FF
:1016400003D8104A934207D016E00F4A93420BD0BA
:101650000E4A93420CD00FE00420FFF78FFF0BE0FF
:101660000820FFF78BFF07E01020FFF787FF03E05C
:101670000748FFF783FF00BF0837BD4680BD00BFA6
:101680000000014000C00040004001400040004810
:101690000100001080B582B000AF78607B68124A0C
:1016A000934211D0104A934203D8104A934207D074
:1016B00016E00F4A93420BD00E4A93420CD00FE033
:1016C0000420FFF787FF0BE00820FFF783FF07E008
:1016D0001020FFF77FFF03E00748FFF77BFF00BF05
:1016E0000837BD4680BD00BF0000014000C000407B
:1016F00000400140004000480100001080B582B069
:1017000000AF78601020FFF755FF7868FFF7C2FF41
:101710007868FFF78BFF0837BD4680BD80B584B081
:1017200000AF78600B46FB707868FFF7E7FF7868DA
:10173000FFF76CFF7B681B68FB60FB6823F440438A
:10174000FB60FB789B03FA681343FB607B68FA68D5
:101750001A601037BD4680BD80B485B000AF786098
:101760000B46FB707B681B68FB60FB6823F0300353
:10177000FB60FB781B01FA681343FB607B68FA6827
:101780001A601437BD465DF8047B704780B483B09F
:1017900000AF786039603B681A687B685A613B68C3
:1017A0005B79C3F34013DBB21A057B685A603B6870
:1017B0001B79C3F30303DBB21A467B685A623B68AA
:1017C0005B79C3F30303DBB21A467B681A623B689A
:1017D0005B79C3F30013DBB21A467B689A613B68FE
:1017E0001B79C3F30313DBB21A467B68DA620C374A
:1017F000BD465DF8047B704780B483B000AF78606D
:1018000039603B681A687B685A613B685B79C3F34F
:101810000003DBB21A057B685A603B681B79C3F38F
:101820000303DBB21A467B685A623B681B79C3F339
:101830000313DBB21A467B68DA620C37BD465DF8EB
:10184000047B704780B485B000AF78600B46FB70B6
:101850001346BB707B685B68BB60BB6823F0030307
:10186000BB60FB78BA681343BB607B68BA685A6098
:101870007B685B69FB60BB78012B04D1FB6843F498
:101880008063FB6003E0FB6823F48063FB607B689C
:10189000FA685A611437BD465DF8047B704700BF93
:1018A00080B485B000AF78600B46FB707B685B68E6
:1018B000FB60FB6823F03003FB60FB781B01FA68D8
:1018C0001343FB607B68FA685A601437BD465DF8C5
:1018D000047B704780B489B000AFF8600B467A6033
:1018E000FB72FB7A013BFB77FB681B68BB61FB7FEC
:1018F0005B00DBB21033FB75FB7D032202FA03F3BE
:10190000DB43BA691340BB617B685B781A46FB7D99
:1019100002FA03F3BA691343BB61FB7F1633FB750D
:10192000FB7D012202FA03F3DB43BA691340BB617A
:101930007B689B781A46FB7D02FA03F3BA6913436E
:10194000BB61FB7F5B00DBB21933FB75FB7D0322C0
:1019500002FA03F3DB43BA691340BB617B68DB78AF
:101960001A46FB7D02FA03F3BA691343BB61FB7F9E
:101970009B00FB75FB7D0F2202FA03F3DB43BA6980
:101980001340BB617B681B781A46FB7D02FA03F3A8
:10199000BA691343BB61FB68BA691A602437BD4654
:1019A0005DF8047B704700BF80B483B000AF7860FF
:1019B0000B46FB70FB787A681C339B0013445B6812
:1019C00018460C37BD465DF8047B704780B483B081
:1019D00000AF78600B46FB701346BB70FB789B082A
:1019E000DBB21846FB789B08DBB21A467B680432F0
:1019F00053F82220FB7803F00303DB001946F82399
:101A00008B40DB4302EA03017B68021D43F822108E
:101A1000FB789B08DBB21846FB789B08DBB21A46C2
:101A20007B68043253F82220BB78F97801F0030177
:101A3000C9008B4042EA03017B68021D43F8221073
:101A40000C37BD465DF8047B704700BF80B483B09F
:101A500000AF78607B680322DA600C37BD465DF822
:101A6000047B704780B582B000AF78601020FFF72C
:101A7000A1FD7B680D4A934203D00D4A934209D0E1
:101A800011E04FF40070FFF7A5FD4FF40070FFF771
:101A900075FD08E04FF48060FFF79CFD4FF4806017
:101AA000FFF76CFD00BF0837BD4680BD00800240D7
:101AB00000C0024080B582B000AF786039607868BD
:101AC000FFF7D0FF7868FFF7C1FF3B681A687B68B3
:101AD0001A600837BD4680BD80B485B000AF78601D
:101AE00039607B681B68DBB203F00303002B09D16C
:101AF0007B681A683B681B681A437B681A6000237E
:101B0000FB7301E00123FB73FB7B18461437BD46D2
:101B10005DF8047B704700BF80B485B000AF78608B
:101B20000B46FB701346BB707B685B6FFB60FB78FA
:101B300010331A4601239340DB43FA681340FB60DD
:101B4000BB78FA7810329340FA681343FB607B68E5
:101B5000FA685A671437BD465DF8047B704700BFCA
:101B600080B485B000AF786039603B78C3F302037E
:101B7000DBB21A467B88C3F309039BB21B041343F1
:101B8000FB607B68FA68C3F8F021FB78C3F30013AD
:101B9000DBB21A07FB78C3F38103DBB29B061A435F
:101BA000FB78C3F34013DBB25B071343FB60FB78A6
:101BB000C3F38013DBB29B07FA681343FB607B68B7
:101BC000D3F8F021FB68134343F000427B68C3F86D
:101BD000F0211437BD465DF8047B704780B483B0B4
:101BE00000AF78607B68D3F8843043F080627B6814
:101BF000C3F884200C37BD465DF8047B704700BFF6
:101C000080B483B000AF78607B68D3F8843023F071
:101C100080627B68C3F884200C37BD465DF8047B86
:101C2000704700BF80B500AF0120FFF7D3FC012053
:101C3000FFF7A4FC80BD00BF80B582B000AF786024
:101C40003960FFF7EFFF3B685A697B681A603B68B1
:101C50005B6843F400427B68C3F880203B689A6865
:101C60007B68C3F8A0203B68DA687B68C3F8A420CF
:101C70003B681A697B68C3F880223B681A687B68F6
:101C8000C3F8B8200837BD4680BD00BF80B485B01A
:101C900000AFF860B9603B601346FB71FB79002B25
:101CA00009D1BA6840F21F731340FA6839682831C5
:101CB00042F8213007E0BA68054B1340FA683968EA
:101CC000283142F821301437BD465DF8047B704757
:101CD00000001F0780B485B000AF78607B68D3F840
:101CE000803043F000427B68C3F880200023FB7300
:101CF00016E0FB7B0E4A52F82330BB60BB68D3F87A
:101D0000803003F44033002B07D000BFBB68D3F80A
:101D1000803003F08053002BF8D1FB7B0133FB7341
:101D2000FB7B032BE5D91437BD465DF8047B704778
:101D3000642A000880B485B000AF78600B46FB7061
:101D4000FB78032B03D9FB78043BFB6001E0FB78B5
:101D5000FB607B68D3F8403123F00F027B68C3F847
:101D600040217B68D3F84021FB681A437B68C3F8A5
:101D700040211437BD465DF8047B704780B582B0C2
:101D800000AF786039603B687868596800220023AA
:101D900000F028F83B68786859680122002300F0B9
:101DA00021F83B68786899680022012300F01AF84E
:101DB0003B68786899680122012300F013F83B68BA
:101DC0001A697B68C3F880203B68DA687B68C3F8CF
:101DD000B8203B6878681968FFF7C2FE0837BD462F
:101DE00080BD00BF80B48DB000AFF860B9603B60CB
:101DF0001346FB71FB79002B13D10823FB624FF4D0
:101E0000E0637B620023BB621F233B623B7AC3F328
:101E10000403DBB2FB617B7AC3F30203DBB2FB7624
:101E200013E01823FB624FF0E0637B621023BB6278
:101E30004FF4F8133B62BB7AC3F30403DBB2FB61DC
:101E4000FB7AC3F30203DBB2FB76FB683A68283205
:101E500053F822307B617B6ADB437A6913407B61F4
:101E6000FA7EFB6A02FA03F37A6913437B613B6AE9
:101E7000DB437A6913407B61BB6AFA6902FA03F3B8
:101E80007A6913437B61FB683A682832796943F8C1
:101E900022103437BD465DF8047B704780B485B0AE
:101EA00000AF78600B46FB707B68D3F88030FB6036
:101EB000FB6823F00303FB60FB78FA681343FB60C5
:101EC0007B68FA68C3F880201437BD465DF8047B50
:101ED000704700BF80B586B000AF786039600023DE
:101EE000FB7509E0FB7D394A52F823301846FFF7AD
:101EF00087FEFB7D0133FB75FB7D032BF2D90023AD
:101F00003B613B681B7803F00303DBB2002B02D07C
:101F10004FF400633B610023FB7521E0FB7D2B4AFE
:101F200052F82330D3F88430FB60FB6823F440730D
:101F3000FB603B681B78C3F38103DBB21B02FA68CA
:101F40001343FB60FA683B691343FB60FB7D1F4A48
:101F500052F82330FA68C3F88420FB7D0133FB7507
:101F6000FB7D032BDAD93B685B6843F4000343F441
:101F700000437A68C2F800323B689B6843F0010274
:101F80007B68C3F804223B681B7803F00303DBB2D1
:101F9000022B07D17B68D3F8043243F480327B688C
:101FA000C3F804220023FB7509E0FB7D074A52F8C1
:101FB00023301846FFF712FEFB7D0133FB75FB7DD6
:101FC000032BF2D91837BD4680BD00BF642A000834
:101FD00080B489B000AFF860B9607A607B681B7B21
:101FE000BB61FB68D3F888307B61BB68012202FAD1
:101FF00003F3DB437A6913407B61BB68BA6902FA79
:1020000003F37A6913437B61FB687A69C3F888201C
:102010007B685B7B5BB2002B29DB0023FB61BB6829
:10202000012B0AD10823FB61FB68D3F8B03023F4FD
:10203000F852FB68C3F8B0200CE0BB68002B09D154
:102040000023FB61FB68D3F8B03023F01F02FB686C
:10205000C3F8B020FB68D3F8B0307A68527B51B235
:10206000FA6901FA02F21A43FB68C3F8B020FB6870
:10207000D3F8C8207B685B681A43FB68C3F8C820A4
:10208000FB68D3F8D0207B689B681A43FB68C3F8D1
:10209000D0207B681968FB68BA68803243F8221048
:1020A0002437BD465DF8047B704700BF80B487B01D
:1020B00000AFF860B9601346FB71FB68BA68803204
:1020C00053F822307B617B6923F400637B61FB79E9
:1020D000DB027A6913437B61FB68BA6880327969F5
:1020E00043F822101C37BD465DF8047B704700BFE3
:1020F00080B400AFBD465DF8047B704780B582B008
:1021000000AF0023FB71FB791846FEF7D5F8FEF708
:10211000C5F8FEF78DFEFEF7C9F8FEF749FE3B460F
:102120001846FEF7F9F8FAE781F0004102E000BF37
:1021300083F0004330B54FEA41044FEA430594EA87
:10214000050F08BF90EA020F1FBF54EA000C55EAC2
:10215000020C7FEA645C7FEA655C00F0E2804FEA93
:102160005454D4EB5555B8BF6D420CDD2C4480EA75
:10217000020281EA030382EA000083EA010180EAA5
:10218000020281EA0303362D88BF30BD11F0004FF3
:102190004FEA01314FF4801C4CEA113102D0404229
:1021A00061EB410113F0004F4FEA03334CEA133364
:1021B00002D0524263EB430394EA050F00F0A7807C
:1021C000A4F10104D5F1200E0DDB02FA0EFC22FA77
:1021D00005F2801841F1000103FA0EF2801843FA6B
:1021E00005F359410EE0A5F120050EF1200E012A5C
:1021F00003FA0EFC28BF4CF0020C43FA05F3C0189A
:1022000051EBE37101F0004507D54FF0000EDCF112
:10221000000C7EEB00006EEB0101B1F5801F1BD3BB
:10222000B1F5001F0CD349085FEA30004FEA3C0CBF
:1022300004F101044FEA445212F5800F80F09A80B5
:10224000BCF1004F08BF5FEA500C50F1000041EBB9
:10225000045141EA050130BD5FEA4C0C404141EBBD
:10226000010111F4801FA4F10104E9D191F0000FE4
:1022700004BF01460020B1FA81F308BF2033A3F167
:102280000B03B3F120020CDA0C3208DD02F1140C5E
:10229000C2F10C0201FA0CF021FA02F10CE002F199
:1022A0001402D8BFC2F1200C01FA02F120FA0CFC92
:1022B000DCBF41EA0C019040E41AA2BF01EB0451DB
:1022C000294330BD6FEA04041F3C1CDA0C340EDCD9
:1022D00004F11404C4F1200220FA04F001FA02F31C
:1022E00040EA030021FA04F345EA030130BDC4F1DA
:1022F0000C04C4F1200220FA02F001FA04F340EACF
:102300000300294630BD21FA04F0294630BD94F07F
:10231000000F83F4801306BF81F480110134013D66
:102320004EE77FEA645C18BF7FEA655C29D094EAD7
:10233000050F08BF90EA020F05D054EA000C04BF55
:102340001946104630BD91EA030F1EBF0021002040
:1023500030BD5FEA545C05D14000494128BF41F0DF
:10236000004130BD14F580043CBF01F5801130BD43
:1023700001F0004545F0FE4141F470014FF00000CE
:1023800030BD7FEA645C1ABF194610467FEA655C7F
:102390001CBF0B46024650EA013406BF52EA033521
:1023A00091EA030F41F4002130BD00BF90F0000F0F
:1023B00004BF0021704730B54FF4806404F132044B
:1023C0004FF000054FF0000150E700BF90F0000F04
:1023D00004BF0021704730B54FF4806404F132042B
:1023E00010F0004548BF40424FF000013EE700BFFB
:1023F00042004FEAE2014FEA31014FEA02701FBF8B
:1024000012F07F4393F07F4F81F06051704792F05C
:10241000000F14BF93F07F4F704730B54FF46074D6
:1024200001F0004521F0004120E700BF50EA010221
:1024300008BF704730B54FF000050AE050EA0102CE
:1024400008BF704730B511F0004502D5404261EB3E
:1024500041014FF4806404F132045FEA915C3FF47F
:10246000DCAE4FF003025FEADC0C18BF03325FEA18
:10247000DC0C18BF033202EBDC02C2F1200300FACD
:1024800003FC20FA02F001FA03FE40EA0E0021FAF2
:1024900002F11444C1E600BF70B54FF0FF0C4CF4DC
:1024A000E06C1CEA11541DBF1CEA135594EA0C0F92
:1024B00095EA0C0F00F0DEF82C4481EA030621EACD
:1024C0004C5123EA4C5350EA013518BF52EA033508
:1024D00041F4801143F4801338D0A0FB02CE4FF0BA
:1024E0000005E1FB02E506F00042E0FB03E54FF0EA
:1024F0000006E1FB03569CF0000F18BF4EF0010EE2
:10250000A4F1FF04B6F5007F64F5407404D25FEADD
:102510004E0E6D4146EB060642EAC62141EA555190
:102520004FEAC52040EA5E504FEACE2EB4F1FD0CD2
:1025300088BFBCF5E06F1ED8BEF1004F08BF5FEA50
:10254000500E50F1000041EB045170BD06F0004602
:1025500046EA010140EA020081EA0301B4EB5C04AF
:10256000C2BFD4EB0C0541EA045170BD41F48011A7
:102570004FF0000E013C00F3AB8014F1360FDEBFCC
:10258000002001F0004170BDC4F10004203C35DAA8
:102590000C341BDC04F11404C4F1200500FA05F32B
:1025A00020FA04F001FA05F240EA020001F00042CC
:1025B00021F0004110EBD37021FA04F642EB060142
:1025C0005EEA430E08BF20EAD37070BDC4F10C046C
:1025D000C4F1200500FA04F320FA05F001FA04F230
:1025E00040EA020001F0004110EBD37041F100011C
:1025F0005EEA430E08BF20EAD37070BDC4F1200527
:1026000000FA05F24EEA020E20FA04F301FA05F28E
:1026100043EA020321FA04F001F0004121FA04F236
:1026200020EA020000EBD3705EEA430E08BF20EA06
:10263000D37070BD94F0000F0FD101F00046400040
:1026400041EB010111F4801F08BF013CF7D041EAC2
:10265000060195F0000F18BF704703F000465200C6
:1026600043EB030313F4801F08BF013DF7D043EA97
:102670000603704794EA0C0F0CEA135518BF95EA4D
:102680000C0F0CD050EA410618BF52EA4306D1D1D4
:1026900081EA030101F000414FF0000070BD50EAF3
:1026A000410606BF1046194652EA430619D094EA7D
:1026B0000C0F02D150EA013613D195EA0C0F05D167
:1026C00052EA03361CBF104619460AD181EA0301BB
:1026D00001F0004141F0FE4141F470014FF0000073
:1026E00070BD41F0FE4141F4780170BD70B54FF00E
:1026F000FF0C4CF4E06C1CEA11541DBF1CEA13558E
:1027000094EA0C0F95EA0C0F00F0A7F8A4EB05046F
:1027100081EA030E52EA03354FEA013100F0888066
:102720004FEA03334FF0805545EA131343EA12632F
:102730004FEA022245EA111545EA10654FEA0026E4
:102740000EF000419D4208BF964244F1FD0404F59D
:10275000407402D25B084FEA3202B61A65EB0305F9
:102760005B084FEA32024FF480104FF4002CB6EBB6
:10277000020E75EB030E22BFB61A754640EA0C0036
:102780005B084FEA3202B6EB020E75EB030E22BF76
:10279000B61A754640EA5C005B084FEA3202B6EBB7
:1027A000020E75EB030E22BFB61A754640EA9C0076
:1027B0005B084FEA3202B6EB020E75EB030E22BF46
:1027C000B61A754640EADC0055EA060E18D04FEA04
:1027D000051545EA16754FEA06164FEAC30343EAA4
:1027E00052734FEAC2025FEA1C1CC0D111F4801F71
:1027F0000BD141EA00014FF000004FF0004CB6E76A
:1028000011F4801F04BF01430020B4F1FD0C88BF08
:10281000BCF5E06F3FF6AFAEB5EB030C04BFB6EB13
:10282000020C5FEA500C50F1000041EB045170BD06
:102830000EF0004E4EEA113114EB5C04C2BFD4EB33
:102840000C0541EA045170BD41F480114FF0000EB7
:10285000013C90E645EA060E8DE60CEA135594EA33
:102860000C0F08BF95EA0C0F3FF43BAF94EA0C0F36
:102870000AD150EA01347FF434AF95EA0C0F7FF4AB
:1028800025AF104619462CE795EA0C0F06D152EAFF
:1028900003353FF4FDAE1046194622E750EA4106E3
:1028A00018BF52EA43067FF4C5AE50EA41047FF4F4
:1028B0000DAF52EA43057FF4EBAE12E74FF0FF3C59
:1028C00006E000BF4FF0010C02E000BF4FF0010C2A
:1028D0004DF804CD4FEA410C7FEA6C5C4FEA430CA3
:1028E00018BF7FEA6C5C1BD001B050EA410C0CBFF2
:1028F00052EA430C91EA030F02BF90EA020F002054
:10290000704710F1000F91EA030F58BF994208BFBA
:1029100090422CBFD8176FEAE37040F00100704777
:102920004FEA410C7FEA6C5C02D150EA013C07D1CE
:102930004FEA430C7FEA6C5CD6D152EA033CD3D019
:102940005DF8040B704700BF8446104662468C4613
:102950001946634600E000BF01B5FFF7B7FF002846
:1029600048BF10F1000F01BD4DF808EDFFF7F4FF6F
:102970000CBF012000205DF808FB00BF4DF808EDFA
:10298000FFF7EAFF34BF012000205DF808FB00BF1D
:102990004DF808EDFFF7E0FF94BF012000205DF83F
:1029A00008FB00BF4DF808EDFFF7CEFF94BF0120F4
:1029B00000205DF808FB00BF4DF808EDFFF7C4FFED
:1029C00034BF012000205DF808FB00BF70B50E4B3E
:1029D0000E4CE41AA41000251E46A54204D056F859
:1029E000253098470135F8E7FFF782FB084C094B83
:1029F000E41AA41000251E46A54204D056F825303E
:102A000098470135F8E770BD248DFE1F248DFE1F09
:102A1000248DFE1F248DFE1F000000000400000016
:102A200000000000000000000000000000000000A6
:102A30000000000000000000000000000000000096
:102A40000000000000000000050000000000000081
:102A500008000000010302060405FF000504060249
:102A60000301FF000044004000480040004C0040CB
:042A700000500040D2
:102A7400001932132C0D260000291A0B34251600D8
:102A840002000000000000006010000005000000CB
:102A94000401000005010000001500001000000002
:102AA40008000000000001000000000002002F00E8
:102AB4000000000000000000000100003C88FE1F30
:102AC400348DFE1F00440040008E024801000100C6
:102AD400D8FFFFFF5CE80200D9FFFFFF75CC0200BE
:102AE400DAFFFFFF3AAE0200DBFFFFFFDE8E0200DB
:102AF400DCFFFFFF4C6F0200DDFFFFFF2D500200E3
:102B0400DEFFFFFFF6310200DFFFFFFFF4140200D7
:102B1400E0FFFFFF54F90100E1FFFFFF2BDF01009D
:102B2400E2FFFFFF7FC60100E3FFFFFF49AF0100A3
:102B3400E4FFFFFF7B990100E5FFFFFF0085010033
:102B4400E6FFFFFFC4710100E7FFFFFFB05F010074
:102B5400E8FFFFFFAD4E0100E9FFFFFFA63E0100C5
:102B6400EAFFFFFF872F0100EBFFFFFF3C2101007D
:102B7400ECFFFFFFB5130100EDFFFFFFE2060100CC
:102B8400EEFFFFFFB7FA0000EFFFFFFF27EF0000A3
:102B9400F0FFFFFF28E40000F1FFFFFFB0D90000C1
:102BA400F2FFFFFFB8CF0000F3FFFFFF39C60000BC
:102BB400F4FFFFFF2DBD0000F5FFFFFF8EB4000002
:102BC400F6FFFFFF58AC0000F7FFFFFF86A40000EC
:102BD400F8FFFFFF149D0000F9FFFFFFFE950000C2
:102BE400FAFFFFFF428F0000FBFFFFFFDC880000BD
:102BF400FCFFFFFFC8820000FDFFFFFF037D000014
:102C0400FEFFFFFF8A770000FFFFFFFF5B720000FB
:102C140000000000716D000001000000C9680000A0
:102C24000200000061640000030000003560000041
:102C340004000000415C000005000000835800000F
:102C440006000000F8540000070000009B5100003B
:102C5400080000006A4E000009000000624B0000FA
:102C64000A000000804800000B000000314800000A
:102C74000C000000E44600000D000000DF440000EA
:102C84000E0000005F4200000F000000973F0000AC
:102C940010000000AF3C000011000000C239000029
:102CA40012000000E7360000130000002934000081
:102CB400140000009231000015000000242F0000D1
:102CC40016000000E22C000017000000C92A0000D2
:102CD40018000000DA280000190000001027000086
:102CE4001A000000682500001B000000DF2300001C
:102CF4001C000000722200001D0000001E210000C4
:102D04001E000000E01F00001F000000B41E0000B1
:102D1400200000009A1D0000210000008E1C00000D
:102D240022000000901B0000230000009D1A0000F8
:102D340024000000B419000025000000D51800008C
:102D440026000000FD170000270000002E170000D9
:102D5400280000006616000029000000A4150000E9
:102D64002A000000E91400002B00000034140000C5
:102D74002C000000851300002D000000DC12000070
:102D84002E000000391200002F0000009B110000EB
:102D94003000000002110000310000006F1000003C
:102DA40032000000E10F000033000000570F000064
:102DB40034000000D10E0000350000004F0E00006A
:102DC40036000000D10D000037000000560D000051
:102DD40038000000DD0C000039000000670C000022
:102DE4003A000000F10B00003B0000007D0B0000E6
:102DF4003C000000090B00003D000000D80A000060
:102E04003E0000009D0A00003F0000005C0A000034
:102E140040000000150A000041000000CB0900003A
:102E2400420000007F090000430000003309000055
:102E340044000000E8080000450000009E0800006F
:102E44004600000057080000470000001208000078
:102E540048000000D007000049000000910700006E
:102E64004A000000560700004B0000001E07000047
:102E74004C000000E90600004D000000B706000009
:102E84004E000000880600004F0000005C060000B1
:102E94005000000032060000510000000906000046
:102EA40052000000E305000053000000BE050000CE
:102EB400540000009B050000550000007805000048
:102EC40056000000560500005700000035050000BC
:102ED400580000001405000059000000F40400002C
:102EE4005A000000D40400005B000000B30400009A
:102EF4005C000000930400005D0000007304000007
:102F04005E000000520400005F0000003204000074
:102F1400600000001204000061000000F2030000E1
:102F240062000000D203000063000000B40300004C
:102F340064000000960300006500000078030000B0
:102F4400660000005D03000067000000420300000B
:102F5400680000002903000069000000130300005A
:102F64006A000000FE0200006B000000EC0200009A
:102F74006C000000DD0200006D000000D1020000C2
:102F84006E000000C9020000800000000000010083
:042F94000000000039
:0400000508000201EC
:00000001FF
